:0300000002042EC9
:0C042E00787FE4F6D8FD75815102024A87
:1003A000000000000000000000000000000000004D
:1003B000000000000000000000000000000000003D
:02044B0000228D
:07044400AE071FEE70FA2263
:0D042000EFD3940040077E72DEFE1F80F3D4
:01042D0022AC
:10024A00E4F521F522F52378247C00FD7BFF7A036F
:10025A0079A0FE7F101200D378347C007D007BFFEA
:10026A007A0379B07E007F101200D312040CC20008
:10027A0012018D8F21C20012018DEFFB7A007548A1
:0A028A00037D017F0212030780E4E8
:10018D00E4FFFEC2B5C2B4D2B30000D2B40000C2C7
:10019D00B4D2B30000D2B40000C2B4A20092B30036
:1001AD0000D2B40000C2B4D2B30000FDD2B400003E
:1001BD00C2B40000EF25E0FFA2B3E4334FFF0DBD45
:1001CD0008EAE4FDA2B3E433FCA805088002C333BA
:1001DD00D8FC4206D2B40000C2B400000DBD08E444
:0B01ED00D2B5EFB50603AF06227F0C71
:0101F80022E4
:10037F007F0A24FFFDE434FFFC7E0022CFCDCFCED9
:10038F00CCCE0201387C007D0A120138ED2430FFFB
:01039F00223B
:1003DE00C2A0C2A1C2A28F807F02120420D2A27F2D
:0703EE0002120420C2A2224A
:1003F500D2A0C2A1C2A28F807F02120420D2A27F06
:0704050002120420C2A22232
:10040C007F381203DE7F0C1203DE7F061203DE7FC1
:04041C00010203DEF8
:1003C0008F4A8D4BE54AB40105E54B148009E54A97
:0E03D000B4020AE54B243F4480FF1203DE22F4
:0A043A008B1D1203C0AF1D0203F575
:060359008B4E8A4F895013
:10035F001203C0E4F551AB4EAA4FA95085518275D7
:0F036F0083001200F9FF60071203F5055180E7C4
:01037E00225C
:080332008E4A8F4B8C4C8D4D5F
:10033A007F017E00E4FBEBC3954DE54C6480F874C5
:0E034A008098500AAC4AAD4B1201260B80E899
:010358002282
:040307008A468B4750
:10030B001203C0854849E549D394004019E54912C9
:10031B00037F120332AC46AD4712038B12039412C8
:06032B0003F5154980E016
:0103310022A9
:0401F9008A0A8B0BD8
:1001FD001203C0C3E50A64809480400D7F2B120367
:10020D00F5850A0E850B0F80107F2D1203F5C3E4C3
:10021D00950BF50FE4950AF50E850C0DE50DD394B0
:10022D00004019E50D12037F120332AC0EAD0F1213
:0C023D00038B1203941203F5150D80E0F2
:010249002292
:040294008A128B132C
:100298001203C0851415E515D39400402BE5157F8E
:1002A80010120381120332AC12AD1312038BEF54F8
:1002B8000FF516C3940AE51650042430800224373B
:0802C800FF1203F5151580CEAD
:0102D000220B
:0402D1008A198B1AE1
:1002D5001203C0851B1CE51CD394004024E51C2497
:1002E500FFFDE434FFFC7F027E00120332AC19AD42
:1002F5001A12038BEF54012430FF1203F5151C80ED
:01030500D522
:0103060022D4
:10000300E709F608DFFA8046E709F208DFFA803EDF
:1000130088828C83E709F0A3DFFA8032E309F608CC
:10002300DFFA8078E309F208DFFA807088828C8334
:10003300E309F0A3DFFA806489828A83E0A3F608E8
:10004300DFFA805889828A83E0A3F208DFFA804CC2
:1000530080D280FA80C680D4806980F28033801099
:1000630080A680EA809A80A880DA80E280CA803302
:1000730089828A83ECFAE493A3C8C582C8CCC5837A
:10008300CCF0A3C8C582C8CCC583CCDFE9DEE7804A
:100093000D89828A83E493A3F608DFF9ECFAA9F0C9
:1000A300EDFB2289828A83ECFAE0A3C8C582C8CC1F
:1000B300C583CCF0A3C8C582C8CCC583CCDFEADE38
:1000C300E880DB89828A83E493A3F208DFF980CC9A
:1000D30088F0EF60010E4E60C388F0ED2402B40493
:1000E3000050B9F582EB2402B4040050AF2323453A
:0600F3008223900053730C
:1000F900BB010CE58229F582E5833AF583E02250BC
:1001090006E92582F8E622BBFE06E92582F8E22205
:0D011900E58229F582E5833AF583E493221F
:10012600EF8DF0A4A8F0CF8CF0A428CE8DF0A42EED
:02013600FE22A7
:10013800BC000BBE0029EF8DF084FFADF022E4CCAB
:10014800F875F008EF2FFFEE33FEEC33FCEE9DEC74
:10015800984005FCEE9DFE0FD5F0E9E4CEFD22EDBA
:10016800F8F5F0EE8420D21CFEADF075F008EF2F04
:10017800FFED33FD4007985006D5F0F222C398FDF5
:050188000FD5F0EA2292
:00000001FF
