:0300000002037C7C
:0C037C00787FE4F6D8FD75815B0203C3B6
:02089E00002236
:07089700AE071FEE70FA220C
:0D083F00EFD3940040077E72DEFE1F80F3B1
:01084C002289
:10073F007BE87A03E4FD7F011201F57F6412083F25
:0E074F007F6412083F7F107E271206DE80FEB8
:0D000E00D2B4D2B50000C2B40000C2B522C9
:0D087700C2B4D2B50000D2B40000C2B52258
:05001E00D2B4D2B522AE
:1007D200C2B5E4FEEF3392B4D2B50000C2B5000058
:0807E200EF25E0FF0EBE08EC5C
:0107EA0022EC
:10075D00E4FFD2B4C2B5FED2B50000EF25E0FFA292
:0D076D00B4E4334FFFC2B500000EBE08EA31
:01077A00225C
:0E084D00EF24FF92B4D2B50000C2B500002225
:10082D00D2B4C2B5D2B50000A2B4E433FFC2B50054
:01083D0000BA
:01083E002297
:1007B700140A000000000000000000000000000014
:0A07C700000000000000020800001E
:0108A0002235
:1002CF00534603530703E4F587E549C433333354E7
:1002DF00804287E4F598EFC4333354C04298A200AC
:1002EF00929C53B7EFE546540233333354F842B779
:1002FF00E5461392BCEF64016005EF64037069304B
:10030F000123E4F5C9F5C8E547C41354078548F040
:10031F0084FFC3E49FFBE494008BCCF5CD8BCAF52F
:10032F00CBD2CA803B53890F4389207E007401A82A
:10033F0049088005C333CE33CED8F9FFAD477C00D3
:10034F001200747D0C1200DB7C007D201200DBADEF
:10035F00487C001200DBC3E49FFB8B8D8B8BD28E0E
:0C036F00A20192CDA20192CCD2ACD2AF80
:01037B00225F
:0300230002047460
:0B047400C0E0C0D075D000C000C00781
:10047F00309849C298AF09740A2FF8A699740A2FB9
:10048F00F8E6B40A2F0509E50970020508C3E50966
:10049F009414E50894005011740A2509F8760005A4
:1004AF0009E50970E8050880E47508007509001270
:1004BF0008A080080509E50970020508309904C2F3
:0304CF0099C202CD
:0904D200D007D000D0D0D0E032F8
:09088E002002FDEFD202F59922CF
:1006B9008B528A538954AB52AA53A95412002E6003
:1006C900130554E5547002055314F912002EFF1254
:0506D900088E80E22202
:05002600AE0702088E88
:10072000E4FEEEFD3395E0FCC374039DFDE49C8D77
:0E07300082F583120047FF12088E0EBE04E40D
:01073E002298
:10077B00AB07AA06C374FF9BFF74FF9AFEE49400B9
:0E078B00FDE49400FCE4FB7A01F9F802052C71
:0801F5008F218D228A238B2447
:1001FD00E5227012E5215403F529E5215404F52774
:10020D00E5215408F528E522B4011BE5215430C43D
:10021D00540FF529E5215440C4540FF527E5215419
:10022D0080C4540FF528752900752901AE23AF241C
:10023D00E4FCFD7BFF7AFFF9F8D31201114037D3AF
:10024D00E5249400E5239400402CAE23AF24AB07A6
:10025D00AA0674FF9BFF74FF9AFEE499FDE49400D7
:10026D00FCE4FB7A01F812052C8F25AE23AF241286
:10027D00077BAF038F26752902C3E52494FFE52381
:10028D0094005012E5249400E5239400400874FF77
:10029D009524F526F525E522700685258C85268A7B
:1002AD00E522B4010685258D85268B852189E522DC
:1002BD00B40104D28ED2ABE5227004D28CD2A9D275
:0102CD00AF81
:0102CE00220D
:1006DE008E218F2212077B8FCDAE21AF2212077B88
:1006EE00AF038FCC85CDCB85CCCAD2CAD2ADD2AF1B
:0106FE0022D9
:03000B0002085B8D
:0E085B00308D02C28D758CFC758A17B29032FA
:03001B000208696F
:0E086900308F02C28F758DEC758B77B2913295
:03002B00020003CD
:0800030030CF02C2CFB29232ED
:10040800E4FFFEC2B5C2B4D2B30000D2B40000C249
:10041800B4D2B30000D2B40000C2B4A20392B300B5
:1004280000D2B40000C2B4D2B30000FDD2B40000C0
:10043800C2B40000EF25E0FFA2B3E4334FFF0DBDC7
:1004480008EAE4FDA2B3E433FCA805088002C3333C
:10045800D8FC4206D2B40000C2B400000DBD08E4C6
:0B046800D2B5EFB50603AF06227F0CF3
:010473002266
:1006FF007F0A24FFFDE434FFFC7E0022CFCDCFCE56
:10070F00CCCE0200867C007D0A120086ED2430FFDD
:01071F0022B7
:1007EB00C2A0C2A1C2A28F807F0212083FD2A27FF9
:0707FB000212083FC2A22216
:10080200D2A0C2A1C2A28F807F0212083FD2A27FD1
:070812000212083FC2A222FE
:100819007F381207EB7F0C1207EB7F061207EB7F7D
:04082900010207EBD6
:100799008F1E8D1FE51EB40105E51F148009E51E96
:0E07A900B4020AE51F243F4480FF1207EB2232
:0A0884008B5B120799AF5B020802BC
:060693008B4A8A4B894CE2
:10069900120799E4F54DAB4AAA4BA94C854D8275D1
:0F06A9008300120047FF6007120802054D80E72B
:0106B800221F
:08066C008E4E8F4F8C508D5112
:100674007F017E00E4FBEBC39551E5506480F87480
:0E0684008098500AAC4EAD4F1200740B80E807
:010692002245
:040618008A3B8B3C52
:10061C00120799853D3EE53ED394004019E53E1204
:10062C0006FF12066CAC3BAD3C12070B1207141202
:06063C000802153E80E0FB
:010642002295
:0404DB008A2C8B2DAF
:1004DF00120799C3E52C64809480400D7F2B12087E
:1004EF0002852C30852D3180107F2D120802C3E438
:1004FF00952DF531E4952CF530852E2FE52FD394DE
:10050F00004019E52F1206FF12066CAC30AD311208
:0C051F00070B120714120802152F80E0D1
:01052B0022AD
:040570008A348B3509
:10057400120799853637E537D39400402BE5377F4A
:100584001012070112066CAC34AD3512070BEF5490
:100594000FF538C3940AE538500424308002243718
:0805A400FF120802153780CE9A
:0105AC00222C
:0405AD008A418B42B2
:1005B100120799854344E544D394004024E544243B
:1005C100FFFDE434FFFC7F027E0012066CAC41ADFE
:1005D1004212070BEF54012430FF12080215448028
:0105E100D544
:0105E20022F6
:100643008F558D568B5712000EAF551207D21208D5
:100653002DAF561207D212082DAF571207D2120828
:090663002D1208777F0A02083FFE
:0405E3008F588D5947
:1005E70012000EAF581207D212082DAF591207D2B8
:1005F70012082D12000EE5584401FF1207D2120807
:100607002D12075D8F5A7F0112084D120877AF5AD6
:0106170022C0
:1003880002073FE493A3F8E493A34003F68001F245
:1003980008DFF48029E493A3F85407240CC8C33376
:1003A800C4540F4420C8834004F456800146F6DF45
:1003B800E4800B01020408102040809007B7E47E17
:1003C800019360BCA3FF543F30E509541FFEE4933A
:1003D800A360010ECF54C025E060A840B8E493A301
:1003E800FAE493A3F8E493A3C8C582C8CAC583CA2C
:1003F800F0A3C8C582C8CAC583CADFE9DEE780BEE4
:0107D1000027
:10002E00BB010689828A83E0225002E722BBFE02D0
:09003E00E32289828A83E4932203
:10004700BB010CE58229F582E5833AF583E022506E
:1000570006E92582F8E622BBFE06E92582F8E222B8
:0D006700E58229F582E5833AF583E49322D2
:10007400EF8DF0A4A8F0CF8CF0A428CE8DF0A42EA0
:02008400FE225A
:10008600BC000BBE0029EF8DF084FFADF022E4CC5E
:10009600F875F008EF2FFFEE33FEEC33FCEE9DEC27
:1000A600984005FCEE9DFE0FD5F0E9E4CEFD22ED6D
:1000B600F8F5F0EE8420D21CFEADF075F008EF2FB7
:1000C600FFED33FD4007985006D5F0F222C398FDA8
:0500D6000FD5F0EA2245
:1000DB00C2D5EC30E709B2D5E4C39DFDE49CFCEE40
:1000EB0030E715B2D5E4C39FFFE49EFE120086C332
:1000FB00E49DFDE49CFC800312008630D507C3E42D
:06010B009FFFE49EFE22AE
:10052C00C2D5E830E70FB2D5E4C39BFBE49AFAE4FA
:10053C0099F9E498F8EC30E717B2D512056212017C
:10054C0063E4C39BFBE49AFAE499F9E498F880031A
:10055C0012016330D50DE4C39FFFE49EFEE49DFDC4
:04056C00E49CFC22ED
:10011100EB9FF5F0EA9E42F0E99D42F0EC6480C865
:0601210064809845F02205
:1001270075F008758200EF2FFFEE33FECD33CDCC8F
:1001370033CCC58233C5829BED9AEC99E582984012
:100147000CF582EE9BFEED9AFDEC99FC0FD5F0D6EF
:10015700E4CEFBE4CDFAE4CCF9A88222B800C1B919
:100167000059BA002DEC8BF084CFCECDFCE5F0CB57
:10017700F97818EF2FFFEE33FEED33FDEC33FCEB90
:1001870033FB10D703994004EB99FB0FD8E5E4F94B
:10019700FA227818EF2FFFEE33FEED33FDEC33FC38
:1001A700C933C910D7059BE99A4007EC9BFCE99A2C
:1001B700F90FD8E0E4C9FAE4CCFB2275F010EF2F71
:1001C700FFEE33FEED33FDCC33CCC833C810D70771
:1001D7009BEC9AE899400AED9BFDEC9AFCE899F8AC
:0E01E7000FD5F0DAE4CDFBE4CCFAE4C8F9223F
:00000001FF
